:020000040801F1
:1040000000000A20856D0108195F0108235F01087F
:104010002B5F0108335F01083B5F010800000000CF
:10402000000000000000000000000000435F0108E5
:10403000515F0108000000005F5F01086D5F01082B
:10404000D56D0108D56D0108D56D0108D56D010844
:10405000D56D0108D56D0108D56D0108D56D010834
:10406000795F0108875F0108D56D0108955F010838
:10407000D56D0108A95F0108D56D0108D56D01084E
:10408000D56D0108D56D0108D56D0108D56D010804
:10409000D56D0108D56D0108D56D0108BD5F01081A
:1040A000D56D0108D95F0108D56D0108ED5F0108E4
:1040B000016001081560010829600108D56D01083B
:1040C0003D600108D56D0108D56D010851600108FA
:1040D000D56D010865600108D56D0108D56D010831
:1040E00029610108D56D0108D56D0108D56D01085C
:1040F000D56D0108D56D0108D56D010800000000DF
:10410000D56D0108D56D010849610108D56D01081B
:104110005D610108D56D0108056201081962010899
:10412000D56D0108D56D0108D56D0108D56D010863
:10413000D56D0108D56D0108D56D0108D56D010853
:10414000D56D0108D56D0108D56D0108D56D010843
:10415000D56D0108D56D0108D56D01082D620108E6
:10416000D56D0108D56D0108D56D0108D56D010823
:10417000D56D0108D56D010800000000D56D01085E
:1041800041620108D56D010855620108D56D01082D
:10419000D56D0108D56D0108000000000000000089
:1041A0000000000000000000D56D0108D56D010879
:0C41B000D56D0108D56D0108D56D010822
:1041C00010B5054C237833B9044B13B10448AFF351
:1041D00000800123237010BDC002002000000000F9
:1041E000B88F030808B5034B1BB103490348AFF36D
:1041F000008008BD00000000C4020020B88F030842
:1042000001F0FF01102A2BDB10F0070F08D010F887
:10421000013B013A8B422DD010F0070F42B3F6D18B
:10422000F0B441EA012141EA014122F007047FF0A4
:1042300000070023F0E80256083C85EA010586EAFB
:10424000010685FA47F5A3FA87F586FA47F6A5FA37
:1042500087F68EB9EED1F0BC01F0FF0102F0070243
:1042600032B110F8013B013A83EA010313B1F8D1EE
:104270000020704701387047002D06BF35460338CF
:10428000073815F0010F07D1013015F4807F02BF08
:10429000013015F4C03F0130F0BC0138704700BF59
:1042A000034613F8012B002AFBD1181A0138704776
:1042B00081F0004102E000BF83F0004330B54FEAD7
:1042C00041044FEA430594EA050F08BF90EA020F44
:1042D0001FBF54EA000C55EA020C7FEA645C7FEAD7
:1042E000655C00F0E2804FEA5454D4EB5555B8BFFA
:1042F0006D420CDD2C4480EA020281EA030382EA6B
:10430000000083EA010180EA020281EA0303362DFC
:1043100088BF30BD11F0004F4FEA01314FF4801CCF
:104320004CEA113102D0404261EB410113F0004FE1
:104330004FEA03334CEA133302D0524263EB430398
:1043400094EA050F00F0A780A4F10104D5F1200E36
:104350000DDB02FA0EFC22FA05F2801841F1000191
:1043600003FA0EF2801843FA05F359410EE0A5F165
:1043700020050EF1200E012A03FA0EFC28BF4CF096
:10438000020C43FA05F3C01851EBE37101F000454C
:1043900007D54FF0000EDCF1000C7EEB00006EEB59
:1043A0000101B1F5801F1BD3B1F5001F0CD34908E3
:1043B0005FEA30004FEA3C0C04F101044FEA44523A
:1043C00012F5800F80F09A80BCF1004F08BF5FEAC1
:1043D000500C50F1000041EB045141EA050130BDA1
:1043E0005FEA4C0C404141EB0101013C28BFB1F5B3
:1043F000801FE9D291F0000F04BF01460020B1FAFE
:1044000081F308BF2033A3F10B03B3F120020CDAD0
:104410000C3208DD02F1140CC2F10C0201FA0CF0AE
:1044200021FA02F10CE002F11402D8BFC2F1200C13
:1044300001FA02F120FA0CFCDCBF41EA0C019040C9
:10444000E41AA2BF01EB0451294330BD6FEA040412
:104450001F3C1CDA0C340EDC04F11404C4F12002FD
:1044600020FA04F001FA02F340EA030021FA04F30F
:1044700045EA030130BDC4F10C04C4F1200220FA66
:1044800002F001FA04F340EA0300294630BD21FAA4
:1044900004F0294630BD94F0000F83F4801306BF6A
:1044A00081F480110134013D4EE77FEA645C18BF5E
:1044B0007FEA655C29D094EA050F08BF90EA020FF5
:1044C00005D054EA000C04BF1946104630BD91EAED
:1044D000030F1EBF0021002030BD5FEA545C05D1F0
:1044E0004000494128BF41F0004130BD14F580042F
:1044F0003CBF01F5801130BD01F0004545F0FE41A3
:1045000041F470014FF0000030BD7FEA645C1ABFD7
:10451000194610467FEA655C1CBF0B46024650EA0E
:10452000013406BF52EA033591EA030F41F400213A
:1045300030BD00BF90F0000F04BF0021704730B5C0
:104540004FF4806404F132044FF000054FF0000195
:1045500050E700BF90F0000F04BF0021704730B556
:104560004FF4806404F1320410F0004548BF40422B
:104570004FF000013EE700BF42004FEAE2014FEA80
:1045800031014FEA02701FBF12F07F4393F07F4F5B
:1045900081F06051704732F07F4208BF704793F05E
:1045A0007F4F04BF41F40021704730B54FF4607471
:1045B00001F0004521F000411CE700BF50EA010274
:1045C00008BF704730B54FF000050AE050EA01021D
:1045D00008BF704730B511F0004502D5404261EB8D
:1045E00041014FF4806404F132045FEA915C3FF4CE
:1045F000D8AE4FF003025FEADC0C18BF03325FEA6B
:10460000DC0C18BF033202EBDC02C2F1200300FA1B
:1046100003FC20FA02F001FA03FE40EA0E0021FA40
:1046200002F11444BDE600BF70B54FF0FF0C4CF42E
:10463000E06C1CEA11541DBF1CEA135594EA0C0FE0
:1046400095EA0C0F00F0DEF82C4481EA030621EA1B
:104650004C5123EA4C5350EA013518BF52EA033556
:1046600041F4801143F4801338D0A0FB02CE4FF008
:104670000005E1FB02E506F00042E0FB03E54FF038
:104680000006E1FB03569CF0000F18BF4EF0010E30
:10469000A4F1FF04B6F5007F64F5407404D25FEA2C
:1046A0004E0E6D4146EB060642EAC62141EA5551DF
:1046B0004FEAC52040EA5E504FEACE2EB4F1FD0C21
:1046C00088BFBCF5E06F1ED8BEF1004F08BF5FEA9F
:1046D000500E50F1000041EB045170BD06F0004651
:1046E00046EA010140EA020081EA0301B4EB5C04FE
:1046F000C2BFD4EB0C0541EA045170BD41F48011F6
:104700004FF0000E013C00F3AB8014F1360FDEBF1A
:10471000002001F0004170BDC4F10004203C35DAF6
:104720000C341BDC04F11404C4F1200500FA05F379
:1047300020FA04F001FA05F240EA020001F000421A
:1047400021F0004110EBD37021FA04F642EB060190
:104750005EEA430E08BF20EAD37070BDC4F10C04BA
:10476000C4F1200500FA04F320FA05F001FA04F27E
:1047700040EA020001F0004110EBD37041F100016A
:104780005EEA430E08BF20EAD37070BDC4F1200575
:1047900000FA05F24EEA020E20FA04F301FA05F2DD
:1047A00043EA020321FA04F001F0004121FA04F285
:1047B00020EA020000EBD3705EEA430E08BF20EA55
:1047C000D37070BD94F0000F0FD101F0004640008F
:1047D00041EB010111F4801F08BF013CF7D041EA11
:1047E000060195F0000F18BF704703F00046520015
:1047F00043EB030313F4801F08BF013DF7D043EAE6
:104800000603704794EA0C0F0CEA135518BF95EA9B
:104810000C0F0CD050EA410618BF52EA4306D1D122
:1048200081EA030101F000414FF0000070BD50EA41
:10483000410606BF1046194652EA430619D094EACB
:104840000C0F02D150EA013613D195EA0C0F05D1B5
:1048500052EA03361CBF104619460AD181EA030109
:1048600001F0004141F0FE4141F470014FF00000C1
:1048700070BD41F0FE4141F4780170BD70B54FF05C
:10488000FF0C4CF4E06C1CEA11541DBF1CEA1355DC
:1048900094EA0C0F95EA0C0F00F0A7F8A4EB0504BE
:1048A00081EA030E52EA03354FEA013100F08880B5
:1048B0004FEA03334FF0805545EA131343EA12637E
:1048C0004FEA022245EA111545EA10654FEA002633
:1048D0000EF000419D4208BF964244F1FD0404F5EC
:1048E000407402D25B084FEA3202B61A65EB030548
:1048F0005B084FEA32024FF480104FF4002CB6EB05
:10490000020E75EB030E22BFB61A754640EA0C0084
:104910005B084FEA3202B6EB020E75EB030E22BFC4
:10492000B61A754640EA5C005B084FEA3202B6EB05
:10493000020E75EB030E22BFB61A754640EA9C00C4
:104940005B084FEA3202B6EB020E75EB030E22BF94
:10495000B61A754640EADC0055EA060E18D04FEA52
:10496000051545EA16754FEA06164FEAC30343EAF2
:1049700052734FEAC2025FEA1C1CC0D111F4801FBF
:104980000BD141EA00014FF000004FF0004CB6E7B8
:1049900011F4801F04BF01430020B4F1FD0C88BF57
:1049A000BCF5E06F3FF6AFAEB5EB030C04BFB6EB62
:1049B000020C5FEA500C50F1000041EB045170BD55
:1049C0000EF0004E4EEA113114EB5C04C2BFD4EB82
:1049D0000C0541EA045170BD41F480114FF0000E06
:1049E000013C90E645EA060E8DE60CEA135594EA82
:1049F0000C0F08BF95EA0C0F3FF43BAF94EA0C0F85
:104A00000AD150EA01347FF434AF95EA0C0F7FF4F9
:104A100025AF104619462CE795EA0C0F06D152EA4D
:104A200003353FF4FDAE1046194622E750EA410631
:104A300018BF52EA43067FF4C5AE50EA41047FF442
:104A40000DAF52EA43057FF4EBAE12E74FF0FF3CA7
:104A500006E000BF4FF0010C02E000BF4FF0010C78
:104A60004DF804CD4FEA410C7FEA6C5C4FEA430CF1
:104A700018BF7FEA6C5C1BD001B050EA410C0CBF40
:104A800052EA430C91EA030F02BF90EA020F0020A2
:104A9000704710F1000F91EA030F58BF994208BF09
:104AA00090422CBFD8176FEAE37040F001007047C6
:104AB0004FEA410C7FEA6C5C02D150EA013C07D11D
:104AC0004FEA430C7FEA6C5CD6D152EA033CD3D068
:104AD0005DF8040B704700BF8446104662468C4662
:104AE0001946634600E000BF01B5FFF7B7FF002895
:104AF00048BF10F1000F01BD4DF808EDFFF7F4FFBE
:104B00000CBF012000205DF808FB00BF4DF808ED48
:104B1000FFF7EAFF34BF012000205DF808FB00BF6B
:104B20004DF808EDFFF7E0FF94BF012000205DF88D
:104B300008FB00BF4DF808EDFFF7CEFF94BF012042
:104B400000205DF808FB00BF4DF808EDFFF7C4FF3B
:104B500034BF012000205DF808FB00BF4FEA410C84
:104B60007FEA6C5C02D150EA013C0AD14FEA430C67
:104B70007FEA6C5C02D152EA033C02D14FF00000A4
:104B800070474FF0010070474FEA410212F50012E2
:104B900015D211D56FF47873B3EB625212D94FEA84
:104BA000C12343F0004343EA505311F0004F23FA6E
:104BB00002F018BF404270474FF00000704750EAC3
:104BC000013005D111F0004008BF6FF00040704780
:104BD0004FF00000704700BF53B94AB9002908BF21
:104BE00000281CBF4FF0FF314FF0FF3000F088B9B4
:104BF000ADF1080C6DE904CE00F006F8DDF804E034
:104C0000DDE9022304B070472DE9F047089D8E4688
:104C100004468846002B4AD18A42174662D9B2FA26
:104C200082F64EB1C6F1200301FA06F820FA03F32A
:104C3000B74043EA0808B4404FEA174E1FFA87FC12
:104C4000B8FBFEF1230C0EFB118843EA084301FB7D
:104C50000CF29A4209D9FB1801F1FF3080F0EA808A
:104C60009A4240F2E78002393B449A1AA3B2B2FB5F
:104C7000FEF00EFB102243EA024300FB0CFC9C45B5
:104C800009D9FB1800F1FF3280F0D6809C4540F234
:104C9000D3803B44023840EA0140A3EB0C030021DF
:104CA0001DB1F3400022C5E90032BDE8F0878B4218
:104CB00005D90DB1C5E9000100210846F5E7B3FAB1
:104CC00083F1002946D1734502D3824200F2058167
:104CD000841A6EEB030201209046002DE5D0C5E951
:104CE0000048E2E7002A00F09080B2FA82F6002E37
:104CF00040F0A4808A1A030C4FEA174E80B2BCB26F
:104D00000121B2FBFEFC0EFB1C2243EA024304FB22
:104D10000CF29A4207D9FB180CF1FF3802D29A42E2
:104D200000F2E080C4469B1AB3FBFEF20EFB123386
:104D300040EA034302FB04F49C4207D9FB1802F14A
:104D4000FF3002D29C4200F2CA8002461B1B42EA9C
:104D50000C40A5E7C1F120068B4022FA06F71F435D
:104D60000EFA01F420FA06F32EFA06FE4FEA17496E
:104D7000234300FA01F81FFA87FCBEFBF9F01C0C74
:104D800009FB10EE44EA0E4400FB0CFEA64502FAB5
:104D900001F209D93C1900F1FF3A80F09C80A64548
:104DA00040F2998002383C44A4EB0E041FFA83FEC3
:104DB000B4FBF9F309FB13444EEA044403FB0CFC77
:104DC000A44508D93C1903F1FF3E80F08280A44538
:104DD0007FD9023B3C4443EA0040A4EB0C04A0FB17
:104DE00002EC64457346E14662D35FD05DB1B8EB37
:104DF000030264EB090404FA06F622FA01F31E43E7
:104E0000CC40C5E9006400214FE7B1FBF2FC010C86
:104E100041EA0E4180B240EA01423B4638463C46F8
:104E2000B846BE462026B1FBF7F1A2EB080241EAE4
:104E30000C4166E7014618E710462CE7C6F1200250
:104E40002EFA02F3B740B14020FA02F24FEA174EB1
:104E50000A43B3FBFEF8BCB20EFB1833110C41EA57
:104E6000034108FB04F9B04089454FEA104380B282
:104E70003ED9791808F1FF3C01D289451FD8A1EB32
:104E80000901B1FBFEF909FB04F80EFB191192B2FE
:104E900042EA0142424529D2BA1809F1FF31C4D28F
:104EA0004245C2D2A9F102013A44BEE7F0459DD283
:104EB000BEEB02036CEB070C0138E14696E7A7EB6B
:104EC00009094944A8F1020CB1FBFEF909FB04F8F9
:104ED000DBE773467FE7504666E70846FDE63B445E
:104EE000023A33E7ACF1020C3B441CE749469CE72D
:104EF000A1EB0901C446B1FBFEF909FB04F8C4E7C4
:104F0000704700BF80B500AF0D4B0E4A1A600C4BC6
:104F100000221A710A4B00225A71094B00225A6171
:104F2000074B00229A61064B03221A62044802F0E2
:104F300067F90346002B01D000F0E0FC00BF80BD04
:104F4000DC0200200030024080B485B000AF786001
:104F50007B681B680A4A93420BD10A4B9B6C094A37
:104F600043F480539364074B9B6C03F48053FB60C2
:104F7000FB6800BF1437BD465DF8047B704700BF77
:104F8000003002400010024080B582B000AF164BE6
:104F90009B6C154A43F004039364134B9B6C03F022
:104FA00004037B607B68104B9B6C0F4A43F001034A
:104FB00093640D4B9B6C03F001033B603B68002244
:104FC00000210B2002F0B4F80B2002F0DDF80022E3
:104FD00000210D2002F0ACF80D2002F0D5F800BF42
:104FE0000837BD4680BD00BF0010024080B483B0CA
:104FF00000AF78607B681B68054A934202D1054B7D
:1050000000221A7000BF0C37BD465DF8047B704764
:10501000003801401140002080B588B000AF3B4609
:1050200020220021184621F097FC2B4B4FF0204204
:105030001A60294B294A5A60274B00229A60264B56
:105040000022DA60244B04221A61234B10225A6199
:10505000214B00229A61204B0022DA611E4B002274
:105060001A621D4B00225A621B4B00229A621A4B95
:105070000022DA62184B00221A63174B00225A638F
:10508000154B00229A63144B0022DA63124B002264
:105090005A64114B00221A640F233B600F237B607C
:1050A000FF23BB600023FB600F233B6110237B6168
:1050B0001123BB610023FB613B46002219460648D1
:1050C0000BF022FB0346002B01D000F017FC00BFC1
:1050D0002037BD4680BD00BF00030020040100A0B2
:1050E00080B586B000AF3B1D00221A605A609A60FE
:1050F000DA601A612B4B1B68002B4ED1294B012221
:105100001A60294B1B6D284A43F001031365264B97
:105110001B6D03F001033B603B684FF6BB737B6084
:105120000223BB600023FB6003233B610C237B61F4
:105130003B1D19461D4802F08BFD4FF23F037B607B
:105140000223BB600023FB6003233B610C237B61D4
:105150003B1D1946164802F07BFD3F237B6002236E
:10516000BB600023FB6003233B610C237B613B1D81
:105170001946104802F06CFD4FF6B3737B600223B2
:10518000BB600023FB6003233B610C237B613B1D61
:105190001946094802F05CFD00E000BF1837BD4623
:1051A00080BD00BF500300200010024000100048E6
:1051B0000014004800180048000C004880B582B078
:1051C00000AF7860FFF78CFF00BF0837BD4680BD99
:1051D00080B58EB000AF07F1240300221A605A6038
:1051E0009A60DA601A61BA4BDB6CB94A43F010037B
:1051F000D364B74BDB6C03F010033B623B6AB44BE8
:10520000DB6CB34A43F00403D364B14BDB6C03F0B3
:105210000403FB61FB69AE4BDB6CAD4A43F020033A
:10522000D364AB4BDB6C03F02003BB61BB69A84BC1
:10523000DB6CA74A43F08003D364A54BDB6C03F01F
:1052400080037B617B69A24BDB6CA14A43F00103C5
:10525000D3649F4BDB6C03F001033B613B699C4BC8
:10526000DB6C9B4A43F00203D364994BDB6C03F085
:105270000203FB60FB68964BDB6C954A43F04003EE
:10528000D364934BDB6C03F04003BB60BB68904B73
:10529000DB6C8F4A43F00803D3648D4BDB6C03F067
:1052A00008037B607B6807F0B9F900224021894838
:1052B00003F098F800224CF2C031874803F092F8CE
:1052C00000224FF488714FF0904003F08BF80022D9
:1052D0004FF48061814803F085F800224FF48E512D
:1052E0007F4803F07FF801224FF480614FF0904037
:1052F00003F078F8002240217A4803F073F8012285
:105300004FF40071754803F06DF804237B624FF48D
:105310000413BB620123FB6207F1240319466D48A5
:1053200002F096FC40237B620123BB620023FB62F8
:1053300000233B6307F124031946664802F088FC0A
:1053400042F23F037B620023BB620023FB6207F152
:1053500024031946604802F07BFC4CF2C0337B62A8
:105360000123BB620023FB6200233B6307F124039C
:105370001946594802F06CFC8F237B620023BB6204
:105380000023FB6207F1240319464FF0904002F01E
:105390005FFC4FF4A2637B620123BB620023FB62CC
:1053A00000233B6307F1240319464FF0904002F0BD
:1053B0004FFC4FF207037B620023BB620023FB62BA
:1053C00007F124031946454802F042FC4FF40063FC
:1053D0007B620023BB620023FB6207F124031946B2
:1053E000414802F035FC4FF4C0637B620123BB628D
:1053F0000023FB6200233B6307F12403194637486F
:1054000002F026FC4FF48E537B620123BB62002323
:10541000FB6200233B6307F124031946304802F086
:1054200017FC4FF400737B620023BB620123FB6215
:1054300007F1240319464FF0904002F009FC4FF4A5
:1054400080537B624FF40413BB620123FB6207F1BC
:1054500024031946204802F0FBFB08237B624FF42B
:105460000413BB620123FB6207F1240319461D48A4
:1054700002F0EEFB40237B620123BB620223FB624E
:1054800000233B6307F124031946164802F0E0FBB2
:105490004FF408437B624FF40413BB620123FB62A9
:1054A00007F1240319460E4802F0D2FB4FF4E073D3
:1054B0007B624FF40413BB620123FB6207F12403F8
:1054C0001946064802F0C4FB002200210EE000BF8E
:1054D0000010024000100048000800480004004886
:1054E00000180048000C004800140048082001F093
:1054F0001FFE082001F048FE00220021092001F0D3
:1055000017FE092001F040FE00220021172001F0C3
:105510000FFE172001F038FE00220021282001F0A4
:1055200007FE282001F030FE00BF3837BD4680BDA1
:1055300080B500AF064B00221A60054802F0B8FFA4
:105540000346002B01D000F0D9F900BF80BD00BF99
:105550005403002080B584B000AF78600B4BDB6C47
:105560000A4A43F40033D364084BDB6C03F4003382
:10557000FB60FB6800220021522001F0D9FD52207F
:1055800001F002FE00BF1037BD4680BD0010024092
:1055900080B500AF1B4B1C4A1A601A4B1B4A5A605D
:1055A000184B00229A60174B0122DA60154B00223B
:1055B0001A61144B00225A61124B00229A61114B5E
:1055C0000022DA610F4B00221A620E4803F052FBF0
:1055D0000346002B01D000F091F90021094805F0A5
:1055E0001FF90346002B01D000F088F9002105487F
:1055F00005F08CF90346002B01D000F07FF900BFC5
:1056000080BD00BF9803002000540040AB75A1305E
:1056100080B5AEB000AF786007F1A40300221A6035
:105620005A609A60DA601A6107F11003942200212F
:10563000184621F091F97B681B68264A934245D1B0
:1056400040233B6100237B6607F11003184608F0F6
:10565000F3F80346002B01D000F050F91E4BDB6C31
:105660001D4A43F04003D3641B4BDB6C03F0400343
:10567000FB60FB6806F0D2FF4FF4C043C7F8A430CC
:105680001223C7F8A8300023C7F8AC300323C7F8AB
:10569000B0300423C7F8B43007F1A40319460F480B
:1056A00002F0D6FA0C4B9B6D0B4A43F40013936542
:1056B000094B9B6D03F40013BB60BB680022002103
:1056C000202001F035FD202001F05EFD00BFB8373D
:1056D000BD4680BD00540040001002400018004844
:1056E00080B582B000AF78607B681B680C4A93423B
:1056F00012D10C4B9B6D0B4A23F4001393654FF4AE
:105700000051094802F022FD4FF48041064802F0A2
:105710001DFD202001F050FD00BF0837BD4680BDB3
:1057200000540040001002400018004880B500AF4F
:105730000B4B0C4A1A600A4B06225A60084B40F683
:10574000FF72DA60064B40F6FF729A60044805F07B
:1057500051F90346002B01D000F0D0F800BF80BD06
:10576000EC0300200030004080B483B000AF7860CC
:10577000074A7B68136000BF054B1B68002BFBD1F9
:1057800000BF00BF0C37BD465DF8047B704700BF0B
:10579000DC05002080B500AF01F01DFB00F05CF8D7
:1057A000FFF716FDFFF7F0FBFFF736FCFFF7F0FE03
:1057B00000F0B4F801F082F901F0CCF900F070FAD1
:1057C000FFF7A0FBFFF7B4FE00F0AEF900F09CFF7E
:1057D000FFF7ACFF00F0AAFE00F05AFE00F0F4FE66
:1057E00000F004FA00F000FE00F03EFF00F0C4FFFD
:1057F00016480BF0E9F8164B00221A7018F090F9D1
:1058000018F0C4FE13F076FC13F076FF12F05CFC87
:1058100013F0E8FE12F02CFB19F0CEFC17F030F874
:1058200017F0CAFD0EF010FF14F0F4F918F030FB79
:1058300014F052F80EF0D8FF17F04CFD14F058F9A0
:1058400012F06AFC034805F065F9F3E7480A002006
:1058500039410020EC03002080B596B000AF07F17D
:10586000140344220021184621F076F83B4600221A
:105870001A605A609A60DA601A61002006F01AFE17
:105880000346002B01D000F039F809237B614FF467
:105890008033BB610123BB620223FB6303233B64B0
:1058A00001237B641E23BB640223FB6402233B654C
:1058B00002237B6507F11403184606F0BFFE03467A
:1058C000002B01D000F01AF80F233B6003237B600C
:1058D0000023BB600023FB6000233B613B460521A6
:1058E000184607F0FBFB0346002B01D000F006F83A
:1058F00007F0B6FE00BF5837BD4680BD80B400AF8C
:1059000072B600BFFEE780B483B000AF7860396044
:1059100000BF0C37BD465DF8047B704780B586B08C
:1059200000AF3B1D00221A605A609A60DA601A616B
:10593000234B244A1A60224B04225A60204B002237
:105940009A601F4B4FF08072DA601D4B1A221A6169
:105950001B4B02225A611A4B00229A61184B0022FB
:10596000DA61174B02221A62154B4FF080425A62DD
:10597000134B00229A62124B0022DA62104B08226B
:105980001A630F4805F0D6F80346002B01D0FFF745
:10599000B5FF01237B600123FB604FF001133B61E6
:1059A0003B1D41F288321946054805F03FFF03468A
:1059B000002B01D0FFF7A2FF00BF1837BD4680BD06
:1059C000FC030020001000A080B5B0B000AF7860EC
:1059D00007F1AC0300221A605A609A60DA601A611B
:1059E00007F1180394220021184620F0B5FF7B68C8
:1059F0001B68494A934240F08B804FF08073BB6133
:105A00004FF40013C7F8A43007F11803184607F045
:105A100013FF0346002B01D0FFF770FF3F4BDB6CF9
:105A20003E4A43F48013D3643C4BDB6C03F4801395
:105A30007B617B69394B1B6D384A43F48073136576
:105A4000364B1B6D03F480733B613B69334BDB6C5E
:105A5000324A43F02003D364304BDB6C03F0200365
:105A6000FB60FB682D4BDB6C2C4A43F00203D364D4
:105A70002A4BDB6C03F00203BB60BB684FF470730E
:105A8000C7F8AC300223C7F8B0300023C7F8B430F1
:105A90000323C7F8B8300A23C7F8BC3007F1AC03BA
:105AA00019461F4802F0D4F84FF48063C7F8AC30B1
:105AB0000223C7F8B0300023C7F8B4300323C7F877
:105AC000B8300323C7F8BC3007F1AC0319461448BB
:105AD00002F0BEF84FF40063C7F8AC300223C7F8F9
:105AE000B0300023C7F8B4300323C7F8B8300A2316
:105AF000C7F8BC3007F1AC0319460A4802F0A8F811
:105B000000220021472001F013FB472001F03CFB5D
:105B100000BFC037BD4680BD001000A0001002408D
:105B2000001400480004004880B500AF074B084A45
:105B30001A60064B00225A60044808F0BBFE034678
:105B4000002B01D0FFF7DAFE00BF80BD4C0400201F
:105B50000008065080B5A8B000AF786007F10C03CC
:105B600094220021184620F0F7FE7B681B681D4A2E
:105B7000934233D14FF48023FB604FF08063C7F82A
:105B8000883003233B6101237B610823BB6102232F
:105B9000FB6102233B6202237B624FF48013BB62F2
:105BA00007F10C03184607F047FE0346002B01D00F
:105BB000FFF7A4FE0C4BDB6C0B4A43F48023D36449
:105BC000094BDB6C03F48023BB60BB68002200211F
:105BD000502001F0ADFA502001F0D6FA00BFA037F6
:105BE000BD4680BD000806500010024080B500AFE1
:105BF000104B114A1A600F4B00225A600D4B7F2246
:105C00009A600C4BFF22DA600A4B00221A61094BA2
:105C100000225A61074B00229A61064B0022DA618A
:105C2000044808F043FF0346002B01D0FFF766FE4F
:105C300000BF80BD600400200028004080B5A8B0EF
:105C400000AF786007F10C0394220021184620F081
:105C500083FE7B681B68104A934218D14FF40033CF
:105C6000FB604FF40073C7F89C3007F10C03184633
:105C700007F0E2FD0346002B01D0FFF73FFE074B84
:105C8000D3F89030054A43F40043C2F8903000BF87
:105C9000A037BD4680BD00BF002800400010024074
:105CA00080B500AF1B4B1C4A1A601A4B4FF482722E
:105CB0005A60184B00229A60164B4FF4E062DA608B
:105CC000144B02221A61134B01225A61114B4FF4FB
:105CD00000729A610F4B0022DA610E4B00221A62A9
:105CE0000C4B00225A620B4B00229A62094B07228E
:105CF000DA62084B00221A63064B00225A630548F9
:105D000009F060F80346002B01D0FFF7F7FD00BF54
:105D100080BD00BF840400200030014080B58AB0FF
:105D200000AF786007F1140300221A605A609A608D
:105D3000DA601A617B681B68534A934240F09F8087
:105D4000524B1B6E514A43F4805313664F4B1B6EEC
:105D500003F480533B613B694C4BDB6C4B4A43F093
:105D60000103D364494BDB6C03F00103FB60FB6868
:105D7000464BDB6C454A43F00203D364434BDB6C78
:105D800003F00203BB60BB6860237B610223BB613D
:105D90000023FB6103233B6205237B6207F11403AD
:105DA00019464FF0904001F053FF20237B610223FE
:105DB000BB610023FB6103233B6205237B6207F188
:105DC00014031946324801F043FF324B324A1A603D
:105DD000304B0B225A602F4B10229A602D4B002221
:105DE000DA602C4B80221A612A4B00225A61294B1F
:105DF00000229A61274B0022DA61264B00221A62A8
:105E0000244801F055FB0346002B01D0FFF776FD37
:105E10007B68204A5A651F4A7B6893621F4B204A61
:105E20001A601E4B0A225A601C4B00229A601B4BC0
:105E30000022DA60194B80221A61184B00225A6145
:105E4000164B00229A61154B0022DA61134B002297
:105E50001A62124801F02CFB0346002B01D0FFF719
:105E60004DFD7B680D4A9A650C4A7B68936200225F
:105E70000021232001F05CF9232001F085F900BF07
:105E80002837BD4680BD00BF0030014000100240F1
:105E9000000400481005002030000240700500207A
:105EA0000800024080B483B000AF0F4B1B6E0E4A57
:105EB00043F0010313660C4B1B6E03F001037B6080
:105EC0007B68094B9B6D084A43F080539365064BF2
:105ED0009B6D03F080533B603B6800BF0C37BD46B1
:105EE0005DF8047B704700BF0010024080B400AF33
:105EF000BFF34F8F00BF064BDB6803F4E062044939
:105F0000044B1343CB60BFF34F8F00BF00BFFDE7CF
:105F100000ED00E00400FA0580B500AF07F0B0FB2B
:105F2000FEE780B500AFFFF7E1FF80B500AFFFF7F8
:105F3000DDFF80B500AFFFF7D9FF80B500AFFFF7F9
:105F4000D5FF80B400AF00BFBD465DF8047B70474D
:105F500080B400AF00BFBD465DF8047B704780B4DD
:105F600000AF00BFBD465DF8047B704780B500AF51
:105F700000F086FF00BF80BD80B500AF042002F0B6
:105F80007FFA00BF80BD80B500AF082002F078FA2C
:105F900000BF80BD80B500AF024801F0FCFC00BF2F
:105FA00080BD00BF7005002080B500AF024801F041
:105FB000F2FC00BF80BD00BF1005002080B500AF1F
:105FC000402002F05DFA802002F05AFA4FF480700F
:105FD00002F056FA00BF80BD80B500AF02480AF05B
:105FE000A7FD00BF80BD00BFE005002080B500AF69
:105FF00002480AF09DFD00BF80BD00BFE005002003
:1060000080B500AF02480AF093FD00BF80BD00BF1D
:106010009C06002080B500AF02480AF089FD00BF51
:1060200080BD00BF5807002080B500AF02480AF0CD
:106030007FFD00BF80BD00BF1408002080B500AF09
:10604000024803F0F9FA00BF80BD00BF98030020AA
:1060500080B500AF024809F0E3FE00BF80BD00BF7D
:106060008404002080B500AF2B4B1B68DB6903F074
:106070002003202B18D1284B1B689B8C9BB2DBB2D2
:10608000184613F071FB244B1B681A68224B1B68DF
:1060900042F020021A60204B1B6808221A621E4B35
:1060A0001B6801221A6236E01B4B1B68DB6903F098
:1060B0008003802B26D1194B1B78002B0FD0184B57
:1060C0001B685A1C16490A601A78134B1B681A85FC
:1060D000124B1B78013BDAB2104B1A7012E0114BD5
:1060E00000221A700C4B1B681A680B4B1B6822F0BD
:1060F00080021A60084B1B681A68074B1B6822F065
:1061000040021A60044B1B6808221A62024B1B688B
:1061100001221A6200BF80BDD40B00200540002080
:10612000004000201140002080B500AF4FF4006017
:1061300002F0A6F94FF4805002F0A2F94FF40040AB
:1061400002F09EF900BF80BD80B500AF02480AF0A2
:10615000EFFC00BF80BD00BFD008002080B500AFBD
:10616000254B1B68DB6903F02003202B0FD1224B4A
:106170001B689B8C9BB2DBB218460EF0EDFA1E4BEF
:106180001B681A681C4B1B6842F020021A601A4BED
:106190001B68DB6903F08003802B23D1174B1B881E
:1061A000002B0FD0164B1B685A1C15490A601A7831
:1061B000114B1B681A85114B1B88013B9AB20F4B80
:1061C0001A800FE00C4B1B681A680B4B1B6822F0FF
:1061D00080021A60084B1B681A68074B1B6822F084
:1061E00040021A60044B1B6808221A62024B1B68AB
:1061F00001221A6200BF80BD080B0020E63D00208E
:10620000E03D002080B500AF02480AF091FC00BFDD
:1062100080BD00BF8C09002080B500AF02480AF0A5
:1062200087FC00BF80BD00BF480A002080B500AFDA
:10623000024804F0D1FD00BF80BD00BFFC03002078
:1062400080B500AF024808F0B1FB00BF80BD00BFC1
:106250004C04002080B500AF024802F0B1F900BF45
:1062600080BD00BF5403002080B400AF0123184656
:10627000BD465DF8047B704780B582B000AF7860A2
:10628000396020F015FC034616221A604FF0FF33E8
:1062900018460837BD4680BD80B582B000AF786033
:1062A0004FF0FF317868FFF7E7FFFEE780B586B073
:1062B00000AFF860B9607A6000237B610AE017F0F4
:1062C00001FC0146BB685A1CBA60CAB21A707B69ED
:1062D00001337B617A697B689A42F0DB7B68184600
:1062E0001837BD4680BD80B483B000AF78604FF0F2
:1062F000FF3318460C37BD465DF8047B704780B409
:1063000083B000AF786039603B684FF400525A6048
:10631000002318460C37BD465DF8047B704780B4F7
:1063200083B000AF7860012318460C37BD465DF896
:10633000047B704780B485B000AFF860B9607A60C4
:10634000002318461437BD465DF8047B70470000F3
:1063500080B586B000AF7860144A154BD31A7B61C4
:106360007B693B61134B1B68002B02D1114B124A16
:106370001A60104B1A687B6813443A699A4207D234
:1063800020F096FB03460C221A604FF0FF3309E021
:10639000084B1B68FB60074B1A687B681344054A6F
:1063A0001360FB6818461837BD4680BD00000A2000
:1063B00000400000D0050020186D002080B400AF20
:1063C000074BD3F88830064A43F47003C2F888308C
:1063D000034B044A9A6000BFBD465DF8047B7047DA
:1063E00000ED00E00040010880B588B000AF07F183
:1063F000100300221A605A609A60DA603B1D002286
:106400001A605A609A60204B204A1A601E4B42F66E
:10641000DF625A601C4B00229A601B4B42F20F72E3
:10642000DA60194B00221A61174B00225A61164B91
:1064300080229A6114480AF0AFF90346002B01D07C
:10644000FFF75CFA4FF480533B6107F110031946E4
:106450000D480AF097FC0346002B01D0FFF74EFAD7
:1064600000237B600023BB600023FB603B1D1946BB
:1064700005480BF0C9F90346002B01D0FFF73EFA9F
:1064800000BF2037BD4680BDE0050020002C014044
:1064900080B588B000AF07F1100300221A605A607F
:1064A0009A60DA603B1D00221A605A609A601E4BA7
:1064B0004FF080421A601C4B77225A601A4B002220
:1064C0009A60194B42F20F72DA60174B00221A6180
:1064D000154B80229A6114480AF05EF90346002B9E
:1064E00001D0FFF70BFA4FF480533B6107F1100323
:1064F00019460D480AF046FC0346002B01D0FFF771
:10650000FDF900237B600023FB603B1D1946064814
:106510000BF07AF90346002B01D0FFF7EFF900BF2B
:106520002037BD4680BD00BF9C06002080B588B0E6
:1065300000AF07F1100300221A605A609A60DA6017
:106540003B1D00221A605A609A601D4B1D4A1A605A
:106550001B4B77225A601A4B00229A60184B40F26C
:10656000E732DA60164B00221A61154B80229A61DD
:1065700013480AF011F90346002B01D0FFF7BEF9CA
:106580004FF480533B6107F1100319460C480AF0A1
:10659000F9FB0346002B01D0FFF7B0F900237B6025
:1065A0000023FB603B1D194605480BF02DF90346FF
:1065B000002B01D0FFF7A2F900BF2037BD4680BDF8
:1065C000580700200004004080B588B000AF07F1F4
:1065D000100300221A605A609A60DA603B1D0022A4
:1065E0001A605A609A601E4B1E4A1A601C4B40F299
:1065F000AF425A601A4B00229A60194B42F20F7256
:10660000DA60174B00221A61154B80229A611448F8
:106610000AF0C2F80346002B01D0FFF76FF94FF4E0
:1066200080533B6107F1100319460D480AF0AAFB9D
:106630000346002B01D0FFF761F900237B600023A4
:10664000FB603B1D194606480BF0DEF80346002BA5
:1066500001D0FFF753F900BF2037BD4680BD00BF12
:10666000140800200008004080B588B000AF07F192
:10667000100300221A605A609A60DA603B1D002203
:106680001A605A609A601E4B1E4A1A601C4B40F2F8
:10669000AF425A601A4B00229A60194B41F287327E
:1066A000DA60174B00221A61154B80229A61144858
:1066B0000AF072F80346002B01D0FFF71FF94FF4E0
:1066C00080533B6107F1100319460D480AF05AFB4D
:1066D0000346002B01D0FFF711F900237B60002354
:1066E000FB603B1D194606480BF08EF80346002B55
:1066F00001D0FFF703F900BF2037BD4680BD00BFC2
:10670000D0080020000C004080B584B000AF3B1DD5
:1067100000221A605A609A60154B164A1A60144B90
:1067200040F2AF425A60124B00229A60104B41F285
:106730008732DA600E4B80229A610D480AF02CF8FD
:106740000346002B01D0FFF7D9F800237B6000231C
:10675000FB603B1D194606480BF056F80346002B1C
:1067600001D0FFF7CBF800BF1037BD4680BD00BF9A
:106770008C0900200010004080B584B000AF3B1DA4
:1067800000221A605A609A60144B154A1A60134B23
:1067900077225A60114B00229A60104B40F2E73288
:1067A000DA600E4B80229A610C4809F0F5FF03462F
:1067B000002B01D0FFF7A2F800237B600023FB60D1
:1067C0003B1D194605480BF01FF80346002B01D06E
:1067D000FFF794F800BF1037BD4680BD480A00207F
:1067E0000014004080B58AB000AF78607B681B68F9
:1067F0005F4A93421CD15F4B1B6E5E4A43F40063B9
:1068000013665C4B1B6E03F400637B627B6A0022A1
:106810000021192000F08CFC192000F0B5FC0022AA
:1068200000211B2000F084FC1B2000F0ADFC9AE04E
:106830007B681B68B3F1804F14D14E4B9B6D4D4A62
:1068400043F0010393654B4B9B6D03F001033B62E7
:106850003B6A002200211C2000F06AFC1C2000F092
:1068600093FC80E07B681B68434A934214D1414B00
:106870009B6D404A43F0020393653E4B9B6D03F0D2
:106880000203FB61FB69002200211D2000F050FC87
:106890001D2000F079FC66E07B681B68374A934254
:1068A00014D1344B9B6D334A43F004039365314B51
:1068B0009B6D03F00403BB61BB69002200211E2015
:1068C00000F036FC1E2000F05FFC4CE07B681B688B
:1068D0002B4A934214D1274B9B6D264A43F0080361
:1068E0009365244B9B6D03F008037B617B69002259
:1068F0000021322000F01CFC322000F045FC32E088
:106900007B681B681F4A934214D11A4B9B6D194A2E
:1069100043F010039365174B9B6D03F010033B612D
:106920003B6900220F21362000F002FC362000F0E7
:106930002BFC18E07B681B68134A934213D10D4B64
:106940009B6D0C4A43F0200393650A4B9B6D03F04B
:106950002003FB60FB6800220021372000F0E8FBE9
:10696000372000F011FC00BF2837BD4680BD00BFB6
:10697000002C0140001002400004004000080040CC
:10698000000C0040001000400014004080B582B0B0
:1069900000AF78607B681B683A4A934221D0394A3D
:1069A000934264D8384A934257D0374A93425ED8CC
:1069B000364A934244D0354A934258D8344A934297
:1069C0002ED0334A934252D8324A93421ED0314A93
:1069D00093424CD8B3F1804F07D02F4A934207D04F
:1069E00045E02E4812F0F2FC48E011F0EBFB45E0E8
:1069F0002B4B1B8801339AB2294B1A80284B1B88DA
:106A0000032B36D1264B00221A8032E0254B1B88FF
:106A100001339AB2234B1A80234B01221A702DE0C6
:106A2000224B1B8801339AB2204B1A801F4B1B88C4
:106A3000032B20D911F0F8FA1C4B00221A801AE01F
:106A40001B4B1B8801339AB2194B1A80194B1B88B8
:106A500001339AB2174B1A8010E0174B1B68002BBA
:106A60000BD0154B1B68013B134A136005E000BFB8
:106A700004E000BF02E000BF00E000BF00BF083735
:106A8000BD4680BD002C01400014004000100040B5
:106A9000000C00400008004000040040843B00203F
:106AA000D4050020040B0020C8000020060B0020A5
:106AB000D6050020D8050020DC05002080B500AFF9
:106AC000224B234A1A60214B4FF4E1325A601F4B8C
:106AD00000229A601D4B0022DA601C4B00221A61D2
:106AE0001A4B0C225A61194B00229A61174B002253
:106AF000DA61164B00221A62144B06225A62134BBB
:106B000000229A6211480AF0FDFF0346002B01D0D3
:106B1000FEF7F4FE00210D480CF0EEF90346002BC1
:106B200001D0FEF7EBFE002108480CF071FA034695
:106B3000002B01D0FEF7E2FE04480CF075F9034685
:106B4000002B01D0FEF7DAFE00BF80BD080B00204D
:106B5000004C004080B500AF224B234A1A60214B05
:106B60004FF416525A601F4B00229A601D4B0022B0
:106B7000DA601C4B00221A611A4B0C225A61194B25
:106B800000229A61174B0022DA61164B00221A622A
:106B9000144B06225A62134B00229A6211480AF0E3
:106BA000B1FF0346002B01D0FEF7A8FE00210D48DF
:106BB0000CF0A2F90346002B01D0FEF79FFE002146
:106BC00008480CF025FA0346002B01D0FEF796FE8C
:106BD00004480CF029F90346002B01D0FEF78EFE85
:106BE00000BF80BDD40B00200038014080B5B0B09C
:106BF00000AF786007F1AC0300221A605A609A6017
:106C0000DA601A6107F118039422002118461FF078
:106C1000A3FE7B681B68564A93425AD10823BB6186
:106C200000233B6607F11803184606F005FE0346ED
:106C3000002B01D0FEF762FE4E4B9B6D4D4A43F494
:106C4000002393654B4B9B6D03F400237B617B69B1
:106C5000484BDB6C474A43F00403D364454BDB6C81
:106C600003F004033B613B694FF48063C7F8AC3029
:106C70000223C7F8B0300023C7F8B4300323C7F8A5
:106C8000B8300823C7F8BC3007F1AC0319463A48BE
:106C900000F0DEFF4FF40063C7F8AC300223C7F802
:106CA000B0300123C7F8B4300323C7F8B830082345
:106CB000C7F8BC3007F1AC0319462F4800F0C8FFF5
:106CC00000220F21342000F033FA342000F05CFA67
:106CD0004AE07B681B68294A934245D10123BB6186
:106CE00000237B6507F11803184606F0A5FD03464F
:106CF000002B01D0FEF702FE1E4B1B6E1D4A43F413
:106D0000804313661B4B1B6E03F48043FB60FB68E0
:106D1000184BDB6C174A43F04003D364154BDB6C14
:106D200003F04003BB60BB6805F078FC4FF4C06320
:106D3000C7F8AC300223C7F8B0300023C7F8B4302E
:106D40000323C7F8B8300723C7F8BC3007F1AC03FA
:106D500019460B4800F07CFF00220521252000F099
:106D6000E7F9252000F010FA00BFC037BD4680BD0E
:106D7000004C00400010024000080048003801406C
:106D800000180048DFF834D0FFF718FB0C480D4915
:106D90000D4A002302E0D458C4500433C4188C4276
:106DA000F9D30A4A0A4C002301E013600432A242DC
:106DB000FBD31FF083FEFEF7EDFCFEE700000A2088
:106DC00000000020BC02002048C10308C0020020CF
:106DD000186D0020FEE780B582B000AF0023FB7184
:106DE000032000F085F9002000F00EF80346002B88
:106DF00002D00123FB7101E0FFF754F8FB7918463C
:106E00000837BD4680BD000080B584B000AF786013
:106E10000023FB73174B1B78002B23D0164B1A68EB
:106E2000144B1B7819464FF47A73B3FBF1F3B2FBA2
:106E3000F3F3184600F0D8F90346002B0FD17B6816
:106E40000F2B09D8002279684FF0FF3000F070F95D
:106E50000A4A7B68136007E00123FB7304E0012307
:106E6000FB7301E00123FB73FB7B18461037BD4623
:106E700080BD00BF080000200000002004000020AA
:106E800080B400AF064B1B781A46064B1B681344B0
:106E9000044A136000BFBD465DF8047B704700BF25
:106EA00008000020A00C002080B400AF034B1B683A
:106EB0001846BD465DF8047B704700BFA00C00205B
:106EC00080B584B000AF7860FFF7EEFFB8607B68F4
:106ED000FB60FB68B3F1FF3F05D00A4B1B781A46F5
:106EE000FB681344FB6000BFFFF7DEFF0246BB6890
:106EF000D31AFA689A42F7D800BF00BF1037BD46D0
:106F000080BD00BF0800002080B485B000AF78606D
:106F10007B6803F00703FB600C4BDB68BB60BA685F
:106F20004FF6FF031340BB60FB681A02BB681343B4
:106F300043F0BF6343F40033BB60044ABB68D360D3
:106F400000BF1437BD465DF8047B704700ED00E0DC
:106F500080B400AF044BDB681B0A03F0070318463C
:106F6000BD465DF8047B704700ED00E080B483B05F
:106F700000AF0346FB7197F90730002B0BDBFB7961
:106F800003F01F02074997F907305B09012000FA57
:106F900002F241F8232000BF0C37BD465DF8047BA8
:106FA000704700BF00E100E080B483B000AF03464B
:106FB000FB7197F90730002B12DBFB7903F01F02FE
:106FC0000A4997F907305B09012000FA02F22033E1
:106FD00041F82320BFF34F8F00BFBFF36F8F00BF77
:106FE00000BF0C37BD465DF8047B704700E100E050
:106FF00080B483B000AF03463960FB7197F9073066
:10700000002B0ADB3B68DAB20C4997F90730120112
:10701000D2B20B4483F800230AE03B68DAB2084995
:10702000FB7903F00F03043B1201D2B20B441A7632
:1070300000BF0C37BD465DF8047B704700E100E0FF
:1070400000ED00E080B489B000AFF860B9607A600C
:10705000FB6803F00703FB61FB69C3F10703042B23
:1070600028BF0423BB61FB690433062B02D9FB69EB
:10707000033B00E000237B614FF0FF32BB6902FA63
:1070800003F3DA43BB681A407B699A404FF0FF3143
:107090007B6901FA03F3D9437B680B40134318461D
:1070A0002437BD465DF8047B7047000080B582B090
:1070B00000AF78607B68013BB3F1807F01D301238F
:1070C0000FE00A4A7B68013B53600F214FF0FF300D
:1070D000FFF78EFF054B00229A60044B07221A60CF
:1070E000002318460837BD4680BD00BF10E000E011
:1070F00080B582B000AF78607B68072B0FD07B68CB
:10710000062B0CD07B68052B09D07B68042B06D09E
:107110007B68032B03D0A6210448FEF7F4FB7868B4
:10712000FFF7F2FE00BF0837BD4680BDD08F0308D1
:1071300080B586B000AF0346B9607A60FB73002368
:107140007B617B680F2B03D9BE210E48FEF7DBFB6A
:10715000BB680F2B03D9BF210A48FEF7D4FBFFF70A
:10716000F7FE78617A68B9687869FFF76BFF0246C5
:1071700097F90F3011461846FFF73AFF00BF18374E
:10718000BD4680BDD08F030880B582B000AF0346F6
:10719000FB7197F90730002B03DAD2210548FEF77F
:1071A000B2FB97F907301846FFF7E0FE00BF08373B
:1071B000BD4680BDD08F030880B582B000AF0346C6
:1071C000FB7197F90730002B03DAE2210548FEF73F
:1071D0009AFB97F907301846FFF7E6FE00BF08371D
:1071E000BD4680BDD08F030880B582B000AF786007
:1071F0007868FFF75BFF034618460837BD4680BD39
:1072000080B582B000AF78607B68002B01D101238C
:10721000A5E07B681B68544A934203D07021534811
:10722000FEF771FB7B685B7FDBB2002B05D17B68CF
:1072300000221A777868FDF787FE7B6802225A776A
:107240007B681B79002B07D07B681B79012B03D04F
:107250007E214648FEF757FB7B681B79002B0CD13B
:107260007B681B68424A5A617B681B689A687B6826
:107270001B6822F018029A600CE07B6899687B68B2
:10728000DB681A46786800F075F80346002B01D0D9
:10729000012364E07B685B79002B07D07B685B7916
:1072A000012B03D090213148FEF72DFB7B685B79E1
:1072B000002B05D17B681B684FF0FF321A6104E098
:1072C0007B681B687A6812691A617B685B69002BAE
:1072D0000FD07B685B69202B0BD07B685B69402BF0
:1072E00007D07B685B69602B03D09C211F48FEF7A9
:1072F0000AFB7B681B689B6823F060017B685A6906
:107300007B681B680A439A607B689B69002B07D0E7
:107310007B689B69802B03D0A0211448FEF7F3FA09
:107320007B681B689B6823F080017B689A697B6897
:107330001B680A439A607B681B6A012B0BD07B6831
:107340001B6A022B07D07B681B6A032B03D0A52185
:107350000648FEF7D8FA7B6801225A7700231846C0
:107360000837BD4680BD00BF003002400C900308C6
:10737000B71DC10480B586B000AFF860B9607A600F
:107380000023FB751F233B617B68002B0CD07B68BF
:10739000082B09D07B68102B06D07B68182B03D0F4
:1073A0005F214248FEF7AFFABB6803F00103002BF0
:1073B00002D10123FB7563E000BF3B695A1E3A61AD
:1073C000002B09D03B6903F01F03BA6822FA03F3CC
:1073D00003F00103002BF0D07B68182B46D801A2E4
:1073E00052F823F0737401086D7401086D7401087C
:1073F0006D7401086D7401086D7401086D740108E5
:107400006D740108617401086D7401086D740108E0
:107410006D7401086D7401086D7401086D740108C4
:107420006D740108557401086D7401086D740108CC
:107430006D7401086D7401086D7401086D740108A4
:107440006D740108497401083B69062B13D90123A7
:10745000FB7510E03B69072B0FD90123FB750CE08E
:107460003B690F2B0BD90123FB7508E00123FB754A
:1074700006E000BF04E000BF02E000BF00E000BF84
:10748000FB7D002B0DD1FB681B68BA685A61FB6855
:107490001B689B6823F01801FB681B687A680A4325
:1074A0009A60FB7D18461837BD4680BD449003089E
:1074B00080B584B000AF78607B68002B01D10123D8
:1074C00076E17B681B686B4A934244D07B681B68FB
:1074D000694A93423FD07B681B68684A93423AD01E
:1074E0007B681B68664A934235D07B681B68654A97
:1074F000934230D07B681B68634A93422BD07B68F1
:107500001B68624A934226D07B681B68604A93429C
:1075100021D07B681B685F4A93421CD07B681B6844
:107520005D4A934217D07B681B685C4A934212D035
:107530007B681B685A4A93420DD07B681B68594A86
:10754000934208D07B681B68574A934203D0A52119
:107550005648FEF7D8F97B689B68002B0CD07B68F7
:107560009B68102B08D07B689B68B3F5804F03D0D5
:10757000A6214E48FEF7C7F97B68DB68402B07D091
:107580007B68DB68002B03D0A7214848FEF7BBF9D6
:107590007B681B69802B07D07B681B69002B03D09D
:1075A000A8214248FEF7AFF97B685B69002B0DD03C
:1075B0007B685B69B3F5807F08D07B685B69B3F556
:1075C000007F03D0A9213948FEF79DF97B689B69AC
:1075D000002B0DD07B689B69B3F5806F08D07B686A
:1075E0009B69B3F5006F03D0AA213048FEF78BF9F1
:1075F0007B68DB69002B07D07B68DB69202B03D01D
:10760000AB212A48FEF77FF97B681B6A002B12D05A
:107610007B681B6AB3F5805F0DD07B681B6AB3F58E
:10762000005F08D07B681B6AB3F5405F03D0AC21D4
:107630001E48FEF768F97B685B685D2B03D9AE21B5
:107640001A48FEF760F97B681B681A46184B9A4285
:1076500036D87B681B681A46164B1344164AA2FBA1
:1076600003231B099A007B685A647B68134A1A64D7
:1076700035E000BF080002401C000240300002401C
:1076800044000240580002406C000240800002406A
:10769000080402401C04024030040240440402403A
:1076A000580402406C0402408004024080900308A9
:1076B00007040240F8FFFDBFCDCCCCCC0000024057
:1076C0007B681B681A463C4B13443C4AA2FB0323CD
:1076D0001B099A007B685A647B68394A1A647B6884
:1076E000022283F825207B681B681B68FB60FB680F
:1076F00023F4FF4323F07003FB607B689A687B6888
:10770000DB681A437B681B691A437B685B691A4311
:107710007B689B691A437B68DB691A437B681B6A39
:107720001343FA681343FB607B681B68FA681A60AE
:10773000786800F02BFA7B689B68B3F5804F02D124
:107740007B6800225A607B685A687B689B6CD2B267
:107750001A607B68DB6C7A68126D5A607B685B68C4
:10776000002B10D07B685B68042B0CD8786800F085
:107770004BFA7B685B6D00221A607B689B6D7A68B0
:10778000D26D5A6008E07B6800225A657B6800224F
:107790009A657B680022DA657B680022DA637B6881
:1077A000012283F825207B68002283F8242000230F
:1077B00018461037BD4680BDF8FBFDBFCDCCCCCC04
:1077C0000004024080B586B000AFF860B9607A600E
:1077D0003B600023FB753B68002B03D03B68B3F58F
:1077E000803F04D340F2DF113A48FEF78CF8FB6883
:1077F00093F82430012B01D1022366E0FB680122BB
:1078000083F82420FB6893F82530DBB2012B55D197
:10781000FB68022283F82520FB680022DA63FB68FC
:107820001B681A68FB681B6822F001021A603B683B
:107830007A68B968F86800F06BF9FB681B6B002B7D
:1078400008D0FB681B681A68FB681B6842F00E02D0
:107850001A600FE0FB681B681A68FB681B6822F05F
:1078600004021A60FB681B681A68FB681B6842F018
:107870000A021A60FB689B6C1B6803F48033002BC0
:1078800007D0FB689B6C1A68FB689B6C42F48072A3
:107890001A60FB685B6D002B07D0FB685B6D1A6894
:1078A000FB685B6D42F480721A60FB681B681A68A3
:1078B000FB681B6842F001021A6005E0FB680022C9
:1078C00083F824200223FB75FB7D18461837BD463C
:1078D00080BD00BF8090030880B584B000AF7860A1
:1078E0000023FB737B6893F82530DBB2022B05D0B5
:1078F0007B680422DA630123FB7347E07B681B6823
:107900001A687B681B6822F00E021A607B681B688D
:107910001A687B681B6822F001021A607B689B6C06
:107920001A687B689B6C22F480721A607B685B6CBF
:1079300003F01C027B681B6C012101FA02F25A6001
:107940007B68DB6C7A68126D5A607B685B6D002B1C
:107950000CD07B685B6D1A687B685B6D22F480726B
:107960001A607B689B6D7A68D26D5A607B680122D1
:1079700083F825207B68002283F824207B689B6B9A
:10798000002B03D07B689B6B78689847FB7B18467D
:107990001037BD4680BD80B584B000AF78607B688D
:1079A0001B6C1B68FB607B681B681B68BB607B688B
:1079B0005B6C03F01C0304229A40FB681340002B0D
:1079C00026D0BB6803F00403002B21D07B681B6822
:1079D0001B6803F02003002B07D17B681B681A6823
:1079E0007B681B6822F004021A607B685B6C03F002
:1079F0001C027B681B6C042101FA02F25A607B684E
:107A00001B6B002B71D07B681B6B786898476CE010
:107A10007B685B6C03F01C0302229A40FB681340F6
:107A2000002B2ED0BB6803F00203002B29D07B680B
:107A30001B681B6803F02003002B0BD17B681B68BD
:107A40001A687B681B6822F00A021A607B680122B0
:107A500083F825207B685B6C03F01C027B681B6C41
:107A6000022101FA02F25A607B68002283F8242086
:107A70007B68DB6A002B38D07B68DB6A78689847C4
:107A800033E07B685B6C03F01C0308229A40FB68C0
:107A90001340002B2AD0BB6803F00803002B25D02D
:107AA0007B681B681A687B681B6822F00E021A60EC
:107AB0007B685B6C03F01C027B681B6C012101FA84
:107AC00002F25A607B680122DA637B68012283F844
:107AD00025207B68002283F824207B685B6B002BC9
:107AE00004D07B685B6B7868984700BF00BF103795
:107AF000BD4680BD80B483B000AF78607B6893F8EA
:107B00002530DBB218460C37BD465DF8047B704764
:107B100080B485B000AFF860B9607A603B60FB6804
:107B2000DB6CFA68126D5A60FB685B6D002B04D049
:107B3000FB689B6DFA68D26D5A60FB685B6C03F062
:107B40001C02FB681B6C012101FA02F25A60FB68FF
:107B50001B683A685A60FB689B68102B08D1FB6869
:107B60001B687A689A60FB681B68BA68DA6007E08D
:107B7000FB681B68BA689A60FB681B687A68DA6001
:107B800000BF1437BD465DF8047B704780B485B0F4
:107B900000AF78607B681B681A46174B9A420AD878
:107BA0007B685B6C9B089B0003F1804303F5023309
:107BB0007A68936407E07B685B6C9B089A000F4BC4
:107BC00013447A6893647B681B68DBB2083B0C4AF9
:107BD000A2FB03231B09FB607B680A4ADA64FB688B
:107BE00003F01F0301229A407B681A6500BF143717
:107BF000BD465DF8047B7047070402401C08024044
:107C0000CDCCCCCC8008024080B485B000AF786089
:107C10007B685B68DBB2FB60FA680B4B13449B002C
:107C20001A467B685A657B68084A9A65FB68013B7F
:107C300003F0030301229A407B68DA6500BF143722
:107C4000BD465DF8047B70473F820010400902404A
:107C500080B586B000AF7860396000237B617B68B7
:107C6000B3F1904F23D07B683E4A93421FD07B688C
:107C70003D4A93421BD07B683C4A934217D07B68B5
:107C80003B4A934213D07B683A4A93420FD07B68B9
:107C9000394A93420BD07B68384A934207D07B68BD
:107CA000374A934203D0AA213648FDF72CFE3B68A1
:107CB0001B689BB2002B04D03B681B68B3F5803F68
:107CC00003D3AB212F48FDF71EFE3B685B68002BFA
:107CD00000F02B823B685B68012B00F026823B683A
:107CE0005B68112B00F021823B685B68022B00F07F
:107CF0001C823B685B68122B00F017823B685B6854
:107D0000B3F5881F00F011823B685B68B3F5041F70
:107D100000F00B823B685B68B3F5441F00F00582FE
:107D20003B685B68B3F5901F00F0FF813B685B68C0
:107D3000B3F5081F00F0F9813B685B68B3F5481F95
:107D400000F0F3813B685B68032B00F0EE813B6839
:107D50005B680B2B00F0E981AC210A48FDF7D3FDED
:107D6000E3E100BF0004004800080048000C0048A0
:107D7000001000480014004800180048001C00488B
:107D800000200048B89003083B681A6801217B690D
:107D900001FA03F31340FB60FB68002B00F0C28183
:107DA0003B685B6803F00303012B05D03B685B680D
:107DB00003F00303022B44D13B68DB68002B0FD098
:107DC0003B68DB68012B0BD03B68DB68022B07D0DC
:107DD0003B68DB68032B03D0BB219548FDF793FD7F
:107DE0007B689B683B617B695B00032202FA03F3BB
:107DF000DB433A6913403B613B68DA687B695B00AF
:107E000002FA03F33A6913433B617B683A699A606B
:107E10007B685B683B6101227B6902FA03F3DB4309
:107E20003A6913403B613B685B681B0903F0010240
:107E30007B6902FA03F33A6913433B617B683A6951
:107E40005A603B685B6803F00303032B27D03B6851
:107E50009B68002B0BD03B689B68012B07D03B68CD
:107E60009B68022B03D0DC217148FDF74CFD7B6839
:107E7000DB683B617B695B00032202FA03F3DB43AF
:107E80003A6913403B613B689A687B695B0002FA80
:107E900003F33A6913433B617B683A69DA603B68F4
:107EA0005B6803F00303022B53D17B68B3F1904F5F
:107EB00023D07B685F4A93421FD07B685E4A93421F
:107EC0001BD07B685D4A934217D07B685C4A934223
:107ED00013D07B685B4A93420FD07B685A4A934227
:107EE0000BD07B68594A934207D07B68584A93422B
:107EF00003D0E8214E48FDF706FD3B681B690F2BB8
:107F000003D9E9214A48FDF7FEFC7B69DA087B6862
:107F1000083253F822303B617B6903F007039B0072
:107F20000F2202FA03F3DB433A6913403B613B68DB
:107F30001A697B6903F007039B0002FA03F33A69AD
:107F400013433B617B69DA087B680832396943F87F
:107F500022107B681B683B617B695B00032202FA8D
:107F600003F3DB433A6913403B613B685B6803F012
:107F700003027B695B0002FA03F33A6913433B6136
:107F80007B683A691A603B685B6803F44033002BF6
:107F900000F0C8802F4B1B6E2E4A43F0010313667E
:107FA0002C4B1B6E03F00103BB60BB682A4A7B6944
:107FB0009B08023352F823303B617B6903F00303D3
:107FC0009B000F2202FA03F3DB433A6913403B6143
:107FD0007B68B3F1904F41D07B68164A934225D01D
:107FE0007B68154A93421FD07B68144A934219D08C
:107FF0007B68134A934213D07B68124A93420DD098
:108000007B68114A934207D07B68104A934201D1A2
:10801000072324E0082322E0062320E005231EE0B6
:1080200004231CE003231AE0022318E0012316E0D6
:10803000B89003080004004800080048000C0048FD
:10804000001000480014004800180048001C0048B8
:1080500000200048001002400000014000237A691F
:1080600002F00302920093403A6913433B613549A1
:108070007B699B0802333A6941F82320324B9B68A5
:108080003B61FB68DB433A6913403B613B685B68DB
:1080900003F48013002B03D03A69FB6813433B6160
:1080A000294A3B699360284BDB683B61FB68DB43F3
:1080B0003A6913403B613B685B6803F40013002B93
:1080C00003D03A69FB6813433B611F4A3B69D360A5
:1080D0001D4B5B683B61FB68DB433A6913403B61C6
:1080E0003B685B6803F40033002B03D03A69FB68FC
:1080F00013433B61144A3B695360134B1B683B615C
:10810000FB68DB433A6913403B613B685B6803F4FF
:108110008033002B03D03A69FB6813433B610A4A62
:108120003B6913607B6901337B613B681A687B693B
:1081300022FA03F3002B7FF427AE00BF00BF1837ED
:10814000BD4680BD000001400004014080B586B0FE
:1081500000AF7860396000237B617B68B3F1904F9A
:1081600024D07B68844A934220D07B68834A934220
:108170001CD07B68824A934218D07B68814A934224
:1081800014D07B68804A934210D07B687F4A934228
:108190000CD07B687E4A934208D07B687D4A93422C
:1081A00004D04FF49D717C48FDF7ADFB3B689BB25A
:1081B000002B04D03B68B3F5803FC0F0D08040F284
:1081C0003B117548FDF79FFBC9E001227B6902FA6C
:1081D00003F33A6813403B613B69002B00F0BC801D
:1081E0006E4A7B699B08023352F82330FB607B693F
:1081F00003F003039B000F2202FA03F3FA68134013
:10820000FB607B68B3F1904F2BD07B685A4A934256
:1082100025D07B68594A93421FD07B68584A9342C5
:1082200019D07B68574A934213D07B68564A9342D1
:108230000DD07B68554A934207D07B68544A9342DD
:1082400001D107230EE008230CE006230AE00523F2
:1082500008E0042306E0032304E0022302E00123F4
:1082600000E000237A6902F0030292009340FA686A
:108270009A4232D14A4B1A683B69DB434849134062
:108280000B60474B5A683B69DB43454913404B60E1
:10829000434BDA683B69DB4341491340CB60404BB9
:1082A0009A683B69DB433E4913408B607B6903F06E
:1082B00003039B000F2202FA03F3FB60374A7B693A
:1082C0009B08023352F82310FB68DA4333487B697A
:1082D0009B080A40023340F823207B681A687B69B8
:1082E0005B00032101FA03F31A437B681A607B6980
:1082F000DA087B68083253F822107B6903F0070321
:108300009B000F2202FA03F3DB437A69D20819407B
:108310007B68083243F822107B689A687B695B00AF
:10832000032101FA03F3DB431A407B689A607B6800
:108330005A6801217B6901FA03F3DB431A407B6829
:108340005A607B68DA687B695B00032101FA03F3FA
:10835000DB431A407B68DA607B6901337B613A68F2
:108360007B6922FA03F3002B7FF42FAF00BF00BF1D
:108370001837BD4680BD00BF000400480008004813
:10838000000C004800100048001400480018004885
:10839000001C004800200048B8900308000001407D
:1083A0000004014080B584B000AF78600B467B804C
:1083B0007B88002B04D14FF4C7710948FDF7A3FA5D
:1083C0007B681A697B881340002B02D00123FB7362
:1083D00001E00023FB73FB7B18461037BD4680BDD0
:1083E000B890030880B582B000AF78600B467B8000
:1083F00013467B707B88002B04D14FF4D7710E4855
:10840000FDF781FA7B78002B07D07B78012B04D015
:1084100040F2AF110848FDF776FA7B78002B03D0C5
:108420007A887B689A6102E07A887B689A6200BFEA
:108430000837BD4680BD00BFB890030880B584B042
:1084400000AF78600B467B807B88002B04D14FF413
:10845000E3710A48FDF757FA7B685B69FB607A882D
:10846000FB6813401A04FB68D9437B880B401A430E
:108470007B689A6100BF1037BD4680BDB890030885
:1084800080B582B000AF0346FB80084B5A69FB8879
:108490001340002B06D0054AFB885361FB88184621
:1084A00015F078FA00BF0837BD4680BD00040140D2
:1084B00080B582B000AF78607B68002B01D10123CA
:1084C00058E07B681B68002B10D07B681B68102B62
:1084D0000CD07B681B68202B08D07B681B68302B76
:1084E00004D040F251112548FDF70DFA7B6893F84E
:1084F0003530DBB2002B06D17B68002283F83420B4
:108500007868FDF727F87B68022283F835207B68BE
:1085100000221A627B680022DA617B6800225A62BC
:108520007B6800229A637B68002283F837207B688F
:10853000012283F82D207B68002283F83620104B1F
:108540001B6823F030027B681B680D4913430B60E6
:108550000B4B1B680A4A23F4005313607B6800220C
:1085600083F82C207B68012283F835207B68002269
:10857000DA63002318460837BD4680BDF49003082F
:108580000004065080B483B000AF786000BF0C37A1
:10859000BD465DF8047B704780B483B000AF78605F
:1085A00000BF0C37BD465DF8047B704780B483B0D4
:1085B00000AF786000BF0C37BD465DF8047B7047A4
:1085C00080B582B000AF7860786800F0C7F90346E4
:1085D0001A467B6883F82C207B6893F82C30002B9C
:1085E0000CD07B68DB6B43F001027B68DA63786850
:1085F000FFF7DCFF7B68002283F82C2000BF0837E0
:10860000BD4680BD80B49DB000AF78600B46FB7066
:108610007B68FB66FB78103B102B00F20D8101A2FA
:1086200052F823F069860108398801083988010861
:1086300039880108B5860108398801083988010898
:108640003988010839880108398801083988010802
:108650003988010815870108398801083988010817
:10866000398801089D870108774BDA68FB6EFA6547
:10867000FA6D12BA1A60FB6E0433FB66724B1A690C
:10868000FB6E3A663A6E12BA1A60FB6E0433FB66F2
:108690006D4B5A69FB6E7A667A6E12BA1A60FB6E7F
:1086A0000433FB66684B9A69FB6EBA66BA6E12BAFF
:1086B0001A60C2E0644BDA68FB6EBA64BA6C12BA34
:1086C0001A60FB6E0433FB665F4B1A69FB6EFA643B
:1086D000FA6C12BA1A60FB6E0433FB665A4B5A6985
:1086E000FB6E3A653A6D12BA1A60FB6E0433FB6694
:1086F000554B9A69FB6E7A657A6D12BA1A60FB6EF9
:108700000433FB66504BDA69FB6EBA65BA6D12BA78
:108710001A6092E04C4BDA68FB6EFA62FA6A12BA9F
:108720001A60FB6E0433FB66474B1A69FB6E3A63B3
:108730003A6B12BA1A60FB6E0433FB66424B5A69FD
:10874000FB6E7A637A6B12BA1A60FB6E0433FB66B7
:108750003D4B9A69FB6EBA63BA6B12BA1A60FB6E34
:108760000433FB66384BDA69FB6EFA63FA6B12BAB4
:108770001A60FB6E0433FB66344B5A69FB6E3A6435
:108780003A6C12BA1A60FB6E0433FB662F4B9A697F
:10879000FB6E7A647A6C12BA1A604EE02A4BDA6881
:1087A000FB6EFA60FA6812BA1A60FB6E0433FB665D
:1087B000254B1A69FB6E3A613A6912BA1A60FB6E70
:1087C0000433FB66204B5A69FB6E7A617A6912BAF0
:1087D0001A60FB6E0433FB661B4B9A69FB6EBA6131
:1087E000BA6912BA1A60FB6E0433FB66164BDA697B
:1087F000FB6EFA61FA6912BA1A60FB6E0433FB660B
:10880000124B5A69FB6E3A623A6A12BA1A60FB6EF0
:108810000433FB660D4B9A69FB6E7A627A6A12BA70
:108820001A60FB6E0433FB66084BDA69FB6EBA62B2
:10883000BA6A12BA1A6000E000BF00BF7437BD46C2
:108840005DF8047B704700BF000406501007065017
:1088500080B586B000AFF860B9603B601346FB712D
:10886000FEF722FB7861FB79002B55D11CE03B68B9
:10887000B3F1FF3F18D0FEF717FB02467B69D31A0E
:108880003A689A4202D33B68002B0DD1FB68012263
:1088900083F83520FB68032283F82C20FB68002234
:1088A00083F83420032352E0BB68082B0AD92A4BF3
:1088B0001A68BB681340BA689A4214BF01230023A8
:1088C000DBB209E0244B5A6ABB681340BA689A428B
:1088D00014BF01230023DBB2002BC8D136E03B6874
:1088E000B3F1FF3F18D0FEF7DFFA02467B69D31AD7
:1088F0003A689A4202D33B68002B0DD1FB680122F3
:1089000083F83520FB68032283F82C20FB680022C3
:1089100083F8342003231AE0BB68082B0AD90E4BD6
:108920001A68BB681340BA689A420CBF012300233F
:10893000DBB209E0084B5A6ABB681340BA689A4236
:108940000CBF01230023DBB2002BC8D10023184643
:108950001837BD4680BD00BF0004065080B582B008
:1089600000AF78607B6893F83530DBB2022B40F0C3
:10897000F0807B685B6A002B0BD1784B1B6A774ACF
:1089800023F0030313627B68012283F8352001235F
:10899000E0E07B685B6A012B03D17B6802225A62AC
:1089A00002E07B6803225A626C4B5B6A03F00203AD
:1089B000022B32D17B681869684B1A68684B1340E8
:1089C000002B13D0654B1A68654B1340B3F5802F0D
:1089D0000AD0624B1A68624B1340614A934201D13C
:1089E000202304E0102302E01C2300E01423194696
:1089F000FFF708FE594B1B6A584A23F00303136222
:108A00007B68012283F835207B68012283F82D20C2
:108A10007868FFF7C1FD00239CE0504B5B6A03F0D0
:108A20000103012B40F093807B681B6A002B14D05C
:108A30007B6893F83630012B0FD1484B1B6A474AAD
:108A400023F0030313627B68002283F836207B68DF
:108A5000082283F8352000237CE0786800F082F853
:108A60000346012B73D17868FFF78CFD7B6893F880
:108A70002D30032B33D14FF47A730122082178680B
:108A8000FFF7E6FE0346002B07D0344B1B6A334A40
:108A900023F00303136203235CE07B68042283F862
:108AA0002D202E4B9B6823F01F027B68DB6903F0AF
:108AB0000303DB00294913438B607B68DA697B6819
:108AC0001A627B689A697B68DA607B6801225A6265
:108AD000224B1B6A214A43F00103136237E07B6893
:108AE00093F82D30042B32D14FF47A7301220821F0
:108AF0007868FFF7ADFE0346002B07D0174B1B6AC3
:108B0000164A23F003031362032323E07B68052244
:108B100083F82D20114B9B6823F01F027B685B6854
:108B200003F00303DB000D4913438B607B685A6835
:108B30007B681A627B689A687B68DA607B680122CE
:108B40005A62064B1B6A054A43F001031362002375
:108B500000E0022318460837BD4680BD00040650D9
:108B60008000040080B586B000AF78600023FB6011
:108B70007B681B6A402B3CD97B68DB687B610023E8
:108B80003B6109E07B693A4A1B6853607B690433A7
:108B90007B613B6904333B613B693F2BF2D97B68C6
:108BA0005B6A022B18D17B69314A1B6853607B6872
:108BB0001B6A432B0CD97B681B6AA3F144027B68B8
:108BC0001A627B68DB6803F144027B68DA6049E083
:108BD0007B6800221A6245E07B681B6AA3F14002B1
:108BE0007B681A627B68DB6803F140027B68DA60AD
:108BF00038E07B68DB687B617B681B6ABB601C4B71
:108C00001B6A1B4A23F00103136200233B6109E046
:108C10007B69174A1B6853607B6904337B613B693E
:108C200001333B61BB6803339B083A699A42EFD337
:108C30007B681B6C012B0AD17B6800221A647B685D
:108C4000012283F835207868FFF79CFC07E0084B89
:108C50009B68074A43F4807393600123FB607B6841
:108C600000221A62FB6818461837BD4680BD00BF57
:108C70000004065080B582B000AF78607B68002B9E
:108C800001D1012315E17B681B688C4A934213D004
:108C90007B681B688A4A93420ED07B681B68894AAE
:108CA000934209D07B681B68874A934204D04FF4F3
:108CB00008718648FCF727FE7B689B68B3F5806FD8
:108CC00004D340F221218148FCF71DFE7B68DB685C
:108CD000012B08D07B68DB68022B04D040F22221F4
:108CE0007A48FCF710FE7B681B69002B09D07B6873
:108CF0001B69B3F5004F04D040F223217348FCF701
:108D000002FE7B685B69FF2B04D94FF409716F4841
:108D1000FCF7F9FD7B689B69002B20D07B689B6981
:108D2000012B1CD07B689B69022B18D07B689B6948
:108D3000032B14D07B689B69042B10D07B689B6944
:108D4000052B0CD07B689B69062B08D07B689B6940
:108D5000072B04D040F225215C48FCF7D4FD7B684A
:108D6000DB69002B09D07B68DB69B3F5002F04D0E9
:108D700040F226215548FCF7C6FD7B681B6A002B94
:108D800009D07B681B6AB3F5003F04D040F227216D
:108D90004E48FCF7B8FD7B6893F84130DBB2002BFE
:108DA00006D17B68002283F840207868FCF730FC0D
:108DB0007B68242283F841207B681B681A687B68E3
:108DC0001B6822F001021A607B685A687B681B6886
:108DD00022F070621A617B681B689A687B681B6866
:108DE00022F400429A607B68DB68012B07D17B6824
:108DF0009A687B681B6842F400429A6006E07B68D0
:108E00009A687B681B6842F404429A607B68DB685E
:108E1000022B08D17B681B685A687B681B6842F488
:108E200000625A6007E07B681B685A687B681B68B1
:108E300022F400625A607B681B685B687A6812687B
:108E400043F0007343F4004353607B681B68DA68A7
:108E50007B681B6822F40042DA607B681A697B68D1
:108E60005B6942EA03017B689B691A027B681B68A5
:108E70000A43DA607B68D9697B681A6A7B681B6879
:108E80000A431A607B681B681A687B681B6842F09B
:108E900001021A607B6800225A647B68202283F8F2
:108EA00041207B6800221A637B68002283F84220FD
:108EB000002318460837BD4680BD00BF005400405F
:108EC00000580040005C00400084004030910308DE
:108ED00080B582B000AF78607B68002B01D10123A0
:108EE0003AE07B681B681E4A934213D07B681B687C
:108EF0001C4A93420ED07B681B681B4A934209D0E0
:108F00007B681B68194A934204D040F293211848A9
:108F1000FCF7F9FC7B68242283F841207B681B68FE
:108F20001A687B681B6822F001021A607868FCF7F7
:108F3000D7FB7B6800225A647B68002283F84120BB
:108F40007B6800221A637B68002283F842207B68DA
:108F5000002283F84020002318460837BD4680BD14
:108F60000054004000580040005C00400084004075
:108F70003091030880B588B002AFF8607A601A4675
:108F80000B467B8113463B81FB6893F84130DBB293
:108F9000202B40F0FD80FB6893F84030012B01D17D
:108FA0000223F6E0FB68012283F84020FDF77CFFF6
:108FB00038613B690093192301224FF40041F8689E
:108FC00001F091F90346002B01D00123E1E0FB6899
:108FD000212283F84120FB68102283F84220FB689D
:108FE00000225A64FB687A685A62FB683A895A859B
:108FF000FB6800225A63FB685B8D9BB2FF2B06D98E
:10900000FB68FF221A854FF080737B6107E0FB68E5
:109010005B8D9AB2FB681A854FF000737B61FB6829
:109020001B8D002B24D0FB685B6A1A78FB681B68D9
:109030009A62FB685B6A5A1CFB685A62FB685B8D2C
:109040009BB2013B9AB2FB685A85FB681B8D013BC2
:109050009AB2FB681A85FB681B8DDBB20133DAB26A
:1090600079894E4B00937B69F86801F0FFFA66E05E
:10907000FB681B8DDAB27989484B00937B69F868ED
:1090800001F0F4FA5BE03A69396AF86801F084F9B2
:109090000346002B01D001237BE0FB685B6A1A7852
:1090A000FB681B689A62FB685B6A5A1CFB685A6221
:1090B000FB685B8D9BB2013B9AB2FB685A85FB68EB
:1090C0001B8D013B9AB2FB681A85FB685B8D9BB2D6
:1090D000002B34D0FB681B8D002B30D13B690093F3
:1090E0003B6A00228021F86801F0FDF80346002B5E
:1090F00001D001234DE0FB685B8D9BB2FF2B0ED9A5
:10910000FB68FF221A85FB681B8DDAB27989002380
:1091100000934FF08073F86801F0A8FA0FE0FB6845
:109120005B8D9AB2FB681A85FB681B8DDAB2798970
:10913000002300934FF00073F86801F097FAFB6882
:109140005B8D9BB2002B9ED13A69396AF86801F0B9
:109150006AF90346002B01D001231AE0FB681B6863
:109160002022DA61FB681B685968FB681A680C4B9F
:109170000B405360FB68202283F84120FB680022EB
:1091800083F84220FB68002283F84020002300E09F
:10919000022318461837BD4680BD00BF002000805E
:1091A00000E800FE80B588B002AFF86008461146BE
:1091B0001A4603467B810B463B811346FB80FB88A6
:1091C000012B07D0FB88022B04D040F6E111844824
:1091D000FCF799FBFB6893F84130DBB2202B40F0A1
:1091E000F9803B6A002B02D0BB8C002B05D1FB68B9
:1091F0004FF400725A640123EDE0FB6893F84030AD
:10920000012B01D10223E6E0FB68012283F8402014
:10921000FDF74AFE78617B690093192301224FF420
:109220000041F86801F05FF80346002B01D00123EC
:10923000D1E0FB68212283F84120FB68402283F8BB
:109240004220FB6800225A64FB683A6A5A62FB6853
:10925000BA8C5A85FB6800225A63F8883A89798962
:109260007B690193BB6A00930346F86800F098FBA2
:109270000346002B05D0FB68002283F84020012321
:10928000A9E0FB685B8D9BB2FF2B0ED9FB68FF2228
:109290001A85FB681B8DDAB27989002300934FF0A1
:1092A0008073F86801F0E2F90FE0FB685B8D9AB219
:1092B000FB681A85FB681B8DDAB27989002300935D
:1092C0004FF00073F86801F0D1F97A69B96AF8686B
:1092D00001F062F80346002B01D001237BE0FB681C
:1092E0005B6A1A78FB681B689A62FB685B6A5A1CA7
:1092F000FB685A62FB685B8D9BB2013B9AB2FB68CC
:109300005A85FB681B8D013B9AB2FB681A85FB6886
:109310005B8D9BB2002B34D0FB681B8D002B30D1B2
:109320007B690093BB6A00228021F86800F0DBFFB4
:109330000346002B01D001234DE0FB685B8D9BB2FF
:10934000FF2B0ED9FB68FF221A85FB681B8DDAB252
:109350007989002300934FF08073F86801F086F953
:109360000FE0FB685B8D9AB2FB681A85FB681B8D6A
:10937000DAB27989002300934FF00073F86801F0A6
:1093800075F9FB685B8D9BB2002B9ED17A69B96A37
:10939000F86801F048F80346002B01D001231AE0D9
:1093A000FB681B682022DA61FB681B685968FB6850
:1093B0001A680C4B0B405360FB68202283F8412055
:1093C000FB68002283F84220FB68002283F84020DB
:1093D000002300E0022318461837BD4680BD00BFB9
:1093E0003091030800E800FE80B588B002AFF86055
:1093F000084611461A4603467B810B463B811346BD
:10940000FB80FB88012B07D0FB88022B04D040F6A1
:109410006A218648FCF777FAFB6893F84130DBB2A3
:10942000202B40F0FD803B6A002B02D0BB8C002B30
:1094300005D1FB684FF400725A640123F1E0FB6828
:1094400093F84030012B01D10223EAE0FB680122AE
:1094500083F84020FDF728FD78617B69009319238C
:1094600001224FF40041F86800F03DFF0346002B55
:1094700001D00123D5E0FB68222283F84120FB685C
:10948000402283F84220FB6800225A64FB683A6A53
:109490005A62FB68BA8C5A85FB6800225A63F888C6
:1094A0003A8979897B690193BB6A00930346F8681E
:1094B00000F0CAFA0346002B05D0FB68002283F8AF
:1094C00040200123ADE0FB685B8D9BB2FF2B0ED9E2
:1094D000FB6801221A85FB681B8DDAB27989544B2F
:1094E00000934FF08073F86801F0C0F80FE0FB685C
:1094F0005B8D9AB2FB681A85FB681B8DDAB279899D
:109500004B4B00934FF00073F86801F0AFF87B69A4
:109510000093BB6A00220421F86800F0E4FE0346D1
:10952000002B01D001237CE0FB681B685A6AFB68B2
:109530005B6AD2B21A70FB685B6A5A1CFB685A629B
:10954000FB681B8D013B9AB2FB681A85FB685B8D3B
:109550009BB2013B9AB2FB685A85FB685B8D9BB25C
:10956000002B34D0FB681B8D002B30D17B6900931E
:10957000BB6A00228021F86800F0B5FE0346002B8C
:1095800001D001234DE0FB685B8D9BB2FF2B0ED910
:10959000FB6801221A85FB681B8DDAB279890023EA
:1095A00000934FF08073F86801F060F80FE0FB68FB
:1095B0005B8D9AB2FB681A85FB681B8DDAB27989DC
:1095C000002300934FF00073F86801F04FF8FB6838
:1095D0005B8D9BB2002B9AD17A69B96AF86800F06A
:1095E00022FF0346002B01D001231AE0FB681B6811
:1095F0002022DA61FB681B685968FB681A680D4B0A
:109600000B405360FB68202283F84120FB68002256
:1096100083F84220FB68002283F84020002300E00A
:10962000022318461837BD4680BD00BF309103089D
:109630000024008000E800FE80B586B000AF7860AE
:109640007B681B689B697B617B681B681B683B614F
:109650007B691B0A03F00103002B10D03B69DB0977
:1096600003F00103002B0AD07B685B6C43F001021E
:109670007B685A647B681B684FF48072DA617B698F
:109680009B0A03F00103002B10D03B69DB0903F0B8
:109690000103002B0AD07B685B6C43F008027B68F7
:1096A0005A647B681B684FF48062DA617B695B0AED
:1096B00003F00103002B10D03B69DB0903F0010329
:1096C000002B0AD07B685B6C43F002027B685A6413
:1096D0007B681B684FF40072DA617B685B6CFB602F
:1096E000FB6803F00B03002B03D0F968786800F0E7
:1096F000A1FC00BF1837BD4680BD80B483B000AF69
:10970000786000BF0C37BD465DF8047B704780B4BD
:1097100083B000AF786000BF0C37BD465DF8047BB6
:10972000704780B483B000AF78600B46FB7013467F
:109730003B8000BF0C37BD465DF8047B704780B4AA
:1097400083B000AF786000BF0C37BD465DF8047B86
:10975000704780B483B000AF786000BF0C37BD465F
:109760005DF8047B704780B483B000AF786000BFC1
:109770000C37BD465DF8047B704780B483B000AF02
:1097800078607B6893F84130DBB218460C37BD46F1
:109790005DF8047B704780B586B000AFF860B960B3
:1097A0007A60FB68DB6A7B61BB683B61FB6893F8AE
:1097B0004030012B01D10223EDE0FB68012283F848
:1097C00040203B695B0903F00103002B0AD07B6852
:1097D0005B0903F00103002B04D03969F86800F03D
:1097E00069FAD3E03B691B0903F00103002B4DD05C
:1097F0007B681B0903F00103002B47D0FB685B8DDE
:109800009BB2002B28D1FB6893F84130DBB2282BA8
:1098100008D17B69B3F1007F04D13969F86800F0A1
:10982000B3FB32E0FB6893F84130DBB2292B0ED159
:109830007B6913F5803F0AD0FB681B681022DA6150
:10984000F86800F00EFDF86800F0D6F91DE0FB683E
:109850001B681022DA6196E0FB681B681022DA614F
:10986000FB685B6C43F00402FB685A647B69002B65
:1098700004D07B69B3F1807F40F08580FB685B6C2E
:109880001946F86800F0D6FB7DE07CE03B699B0858
:1098900003F00103002B30D07B689B0803F0010329
:1098A000002B2AD0FB685B8D9BB2002B18D0FB6885
:1098B0001B685A6AFB685B6AD2B21A70FB685B6A03
:1098C0005A1CFB685A62FB681B8D013B9AB2FB680D
:1098D0001A85FB685B8D9BB2013B9AB2FB685A8587
:1098E000FB685B8D9BB2002B4FD17B6913F5803FEA
:1098F0004BD0F86800F080F947E03B69DB0803F0E3
:109900000103002B0AD07B68DB0803F00103002B66
:1099100004D03969F86800F0EBF837E03B695B0880
:1099200003F00103002B31D07B685B0803F00103D7
:10993000002B2BD0FB685B8D9BB2002B18D0FB68F3
:109940005B6A1A78FB681B689A62FB685B6A5A1C40
:10995000FB685A62FB685B8D9BB2013B9AB2FB6865
:109960005A85FB681B8D013B9AB2FB681A850DE096
:109970007B69B3F1807F02D07B69002B06D1F86848
:1099800000F03AF902E000BF00E000BFFB680022EF
:1099900083F84020002318461837BD4680BD0000DC
:1099A00080B586B002AFF860084611461A460346F5
:1099B0007B810B463B811346FB80FB88DAB27989B9
:1099C000204B00934FF08073F86800F04FFEFA6967
:1099D000B969F86800F0E0FC0346002B01D00123D0
:1099E0002CE0FB88012B05D13B89DAB2FB681B68B0
:1099F0009A6215E03B891B0A9BB2DAB2FB681B68CE
:109A00009A62FA69B969F86800F0C6FC0346002B4F
:109A100001D0012312E03B89DAB2FB681B689A622D
:109A2000FB690093BB6900228021F86800F05BFCB1
:109A30000346002B01D0012300E000231846103715
:109A4000BD4680BD0020008080B586B002AFF860C2
:109A5000084611461A4603467B810B463B81134656
:109A6000FB80FB88DAB27989204B00930023F868E9
:109A700000F0FCFDFA69B969F86800F08DFC034656
:109A8000002B01D001232CE0FB88012B05D13B8961
:109A9000DAB2FB681B689A6215E03B891B0A9BB22D
:109AA000DAB2FB681B689A62FA69B969F86800F073
:109AB00073FC0346002B01D0012312E03B89DAB28C
:109AC000FB681B689A62FB690093BB690022402116
:109AD000F86800F008FC0346002B01D0012300E0E9
